{
  "contractName": "cUSD_spender",
  "abi": [
    {
      "inputs": [
        {
          "internalType": "contract IERC20",
          "name": "_cUSDAddress",
          "type": "address"
        }
      ],
      "payable": false,
      "stateMutability": "nonpayable",
      "type": "constructor"
    },
    {
      "anonymous": false,
      "inputs": [
        {
          "indexed": true,
          "internalType": "address",
          "name": "from",
          "type": "address"
        },
        {
          "indexed": true,
          "internalType": "address",
          "name": "to",
          "type": "address"
        },
        {
          "indexed": false,
          "internalType": "uint256",
          "name": "amount",
          "type": "uint256"
        },
        {
          "indexed": false,
          "internalType": "string",
          "name": "bill_details",
          "type": "string"
        }
      ],
      "name": "cUSDTransferred",
      "type": "event"
    },
    {
      "constant": true,
      "inputs": [],
      "name": "cUSD",
      "outputs": [
        {
          "internalType": "contract IERC20",
          "name": "",
          "type": "address"
        }
      ],
      "payable": false,
      "stateMutability": "view",
      "type": "function"
    },
    {
      "constant": false,
      "inputs": [
        {
          "internalType": "address",
          "name": "recipient",
          "type": "address"
        },
        {
          "internalType": "uint256",
          "name": "amount",
          "type": "uint256"
        },
        {
          "internalType": "string",
          "name": "bill_details",
          "type": "string"
        }
      ],
      "name": "send",
      "outputs": [],
      "payable": false,
      "stateMutability": "nonpayable",
      "type": "function"
    }
  ],
  "bytecode": "0x608060405234801561001057600080fd5b506040516105c93803806105c98339818101604052602081101561003357600080fd5b8101908080519060200190929190505050806000806101000a81548173ffffffffffffffffffffffffffffffffffffffff021916908373ffffffffffffffffffffffffffffffffffffffff16021790555050610535806100946000396000f3fe608060405234801561001057600080fd5b50600436106100365760003560e01c80631fccf6721461003b578063f49bb76b14610085575b600080fd5b61004361016a565b604051808273ffffffffffffffffffffffffffffffffffffffff1673ffffffffffffffffffffffffffffffffffffffff16815260200191505060405180910390f35b6101686004803603606081101561009b57600080fd5b81019080803573ffffffffffffffffffffffffffffffffffffffff16906020019092919080359060200190929190803590602001906401000000008111156100e257600080fd5b8201836020820111156100f457600080fd5b8035906020019184600183028401116401000000008311171561011657600080fd5b91908080601f016020809104026020016040519081016040528093929190818152602001838380828437600081840152601f19601f82011690508083019250505050505050919291929050505061018f565b005b6000809054906101000a900473ffffffffffffffffffffffffffffffffffffffff1681565b816000809054906101000a900473ffffffffffffffffffffffffffffffffffffffff1673ffffffffffffffffffffffffffffffffffffffff1663dd62ed3e33306040518363ffffffff1660e01b8152600401808373ffffffffffffffffffffffffffffffffffffffff1673ffffffffffffffffffffffffffffffffffffffff1681526020018273ffffffffffffffffffffffffffffffffffffffff1673ffffffffffffffffffffffffffffffffffffffff1681526020019250505060206040518083038186803b15801561026257600080fd5b505afa158015610276573d6000803e3d6000fd5b505050506040513d602081101561028c57600080fd5b81019080805190602001909291905050501015610311576040517f08c379a000000000000000000000000000000000000000000000000000000000815260040180806020018281038252600e8152602001807f4e6f7420617574686f72697a656400000000000000000000000000000000000081525060200191505060405180910390fd5b6000809054906101000a900473ffffffffffffffffffffffffffffffffffffffff1673ffffffffffffffffffffffffffffffffffffffff166323b872dd3385856040518463ffffffff1660e01b8152600401808473ffffffffffffffffffffffffffffffffffffffff1673ffffffffffffffffffffffffffffffffffffffff1681526020018373ffffffffffffffffffffffffffffffffffffffff1673ffffffffffffffffffffffffffffffffffffffff1681526020018281526020019350505050602060405180830381600087803b1580156103ed57600080fd5b505af1158015610401573d6000803e3d6000fd5b505050506040513d602081101561041757600080fd5b8101908080519060200190929190505050508273ffffffffffffffffffffffffffffffffffffffff163373ffffffffffffffffffffffffffffffffffffffff167ff672736c015185711933efa4d16aad7e6d07da6133481ae4ed8c2762ac890b4084846040518083815260200180602001828103825283818151815260200191508051906020019080838360005b838110156104c05780820151818401526020810190506104a5565b50505050905090810190601f1680156104ed5780820380516001836020036101000a031916815260200191505b50935050505060405180910390a350505056fea265627a7a7231582026741d95f1d31b37ead86816fd9194b06cc2d9f95431fe96121b6471a1c0487d64736f6c63430005100032",
  "source": "// SPDX-License-Identifier: Apache License 2.0\n\npragma solidity >0.5.0 <0.9.0;\n\n// The IERC20 Interface tells the cUSD_spender contract what functions are available on the cUSD contract\ninterface IERC20 {\n    function totalSupply() external view returns (uint256);\n    function balanceOf(address account) external view returns (uint256);\n    function transfer(address recipient, uint256 amount) external returns (bool);\n    function allowance(address owner, address spender) external view returns (uint256);\n    function approve(address spender, uint256 amount) external returns (bool);\n    function transferFrom(address sender, address recipient, uint256 amount) external returns (bool);\n\n    event Transfer(address indexed from, address indexed to, uint256 value);\n    event Approval(address indexed owner, address indexed spender, uint256 value);\n}\n\n/* \n\nThis is a useless contract that exists to demonstrate how you can set up a contract to\nspend cUSD on a users behalf.\n\n*/\n\ncontract cUSD_spender {\n\n    //\n    IERC20 public cUSD;\n\n    // Pass the address of the cUSD contract to the constructor so the cUSD_spender\n    // contract knows where the cUSD contract is.\n\n    // cUSD (Alfajores testnet) = \"0x874069Fa1Eb16D44d622F2e0Ca25eeA172369bC1\"\n    // cUSD (Celo mainnet) =      \"0x765DE816845861e75A25fCA122bb6898B8B1282a\"\n    constructor(IERC20 _cUSDAddress) public {\n        cUSD = _cUSDAddress;\n    }\n\n    function send(\n        address recipient, \n        uint256 amount, \n        string memory bill_details\n        ) public {\n        \n        // Check that this cUSD_spender contract is authorized to spend the specified amount\n        // of cUSD on behalf of the sender.\n        require(\n            cUSD.allowance(msg.sender, address(this)) >= amount, \"Not authorized\"\n        );\n        \n        // Transfer cUSD to the recipient\n        cUSD.transferFrom(msg.sender, recipient, amount);\n        \n        // Emit an event\n        // This event is unnecessary because the same thing is emitted by the cUSD\n        // contract, but it is good practice to emit events from contract functions.\n        emit cUSDTransferred(\n            msg.sender, \n            recipient, \n            amount, \n            bill_details\n            );\n    }\n    \n    // Define the event\n    event cUSDTransferred(\n        address indexed from, \n        address indexed to, \n        uint256 amount,\n        string bill_details);\n}\n",
  "sourcePath": "/Users/ek/Google Drive/AmBIT/celo_camp/contract_spending_cUSD/contracts/cUSD_spender.sol",
  "compiler": {
    "name": "solc",
    "version": "0.5.16+commit.9c3226ce.Emscripten.clang"
  },
  "schemaVersion": "3.4.1",
  "updatedAt": "2021-11-09T11:18:23.836Z",
  "networkType": "ethereum",
  "devdoc": {
    "methods": {}
  },
  "userdoc": {
    "methods": {}
  }
}